:1000000027C04BC04AC049C048C013C246C045C003
:1000100044C043C042C041C040C03FC03EC00000D9
:10002000000037000000000038000000000036002B
:10003000020202020202020202020102040810206D
:10004000200410080102000000000000000052001F
:1000500011241FBECFE5D2E0DEBFCDBF10E0A0E689
:10006000B0E0E0EBF7E002C005900D92A236B107D8
:10007000D9F710E0A2E6B0E001C01D92AC39B1079B
:10008000E1F710E0C0E5D0E003C02297FE018AD37B
:10009000CE34D107D1F779D389C3B2CF089508956B
:1000A000089508950F931F9382E690E067E771E04B
:1000B00046EB50E02EE430E047D188E690E060E681
:1000C00071E04EE950E02FE430E03ED10EE610E062
:1000D000C8016CE471E04AE850E020E530E034D13A
:1000E00084E790E060E870E04AEE50E021E530E01F
:1000F0002BD18AE790E0B80149D11F910F91089563
:10010000ECD160938B0070938C0080938D00909362
:100110008E00089581E005D39C0180918F0090911D
:1001200090002817390749F03093900020938F00F2
:100130008AE790E064E770E06CD10895CED1209119
:100140008300309184004091850050918600621BAD
:10015000730B840B950B695873418040904028F0D5
:100160008AE790E06EE670E054D10895EF92FF9236
:100170000F931F93B2D17B018C0181E0D2D22091E9
:100180008F00309190008217930729F08AE790E062
:100190006EE670E019C08091870090918800A09170
:1001A0008900B0918A00E81AF90A0A0B1B0B81E258
:1001B000E8168EE4F80680E0080780E0180728F0CB
:1001C0008AE790E068E670E024D11F910F91FF90DC
:1001D000EF900895EF92FF920F931F937ED17B01D2
:1001E0008C0181E09ED29C0180918B0090918C00CB
:1001F000A0918D00B0918E00E81AF90A0A0B1B0B32
:100200008DE5E81682E1F80680E0080780E018072F
:1002100028F08AE790E06EE670E00FC080918F00D2
:10022000909190002817390751F030939000209357
:100230008F008AE790E062E670E0EBD028C0209162
:100240009100309192002F3F310519F41092600017
:1002500006C02115310519F481E08093600080917A
:100260006000813019F42F5F3F4F02C021503040B1
:1002700030939200209391006091910070919200D0
:1002800084E0AFD163E070E080E090E034D11F9172
:100290000F91FF90EF90089580E060E00ED282E031
:1002A00060E00BD281E03DD29093900080938F006C
:1002B00085E060E002D284E060E070E092D10895D1
:1002C0000CD1609383007093840080938500909399
:1002D000860080E060E0F1D182E060E0EED185E070
:1002E00061E0EBD184E060E070E07BD1089580E0D4
:1002F00061E0E3D182E061E0E0D184E06FEF70E0A3
:1003000070D1EBD060938700709388008093890050
:1003100090938A0008958AE790E061D0089581E083
:1003200060E08CD182E061E089D180E061E086D13B
:1003300084E061E083D185E061E080D18AE790E0EC
:100340006EE670E066D00895FC017183608353838C
:100350004283358324830895FC010190F081E02DD0
:10036000309709F009950895DC011296ED91FC9102
:100370001397309709F009950895DC011496ED91D3
:10038000FC911597309709F009950895FC0181E0DB
:1003900080837483638372836183158216821782DC
:1003A00010860895EF92FF920F931F937C018B01AB
:1003B000FC0181819281E1DFF701148303831283C1
:1003C0000183C801C9DF89D0F701658376838783FC
:1003D0009087C7011F910F91FF90EF900895CF93E1
:1003E000DF93EC01888129813A81882321F0C901BA
:1003F000B3DF18820AC06B817C812617370711F0A2
:10040000CE01D0DF89819A81AFDFCE01DF91CF911C
:1004100008950F931F938C01FC01748363835DD057
:10042000F8016583768387839087C8011F910F91B8
:1004300008951F920F920FB60F9211242F933F939E
:100440004F935F936F937F938F939F93AF93BF93DC
:1004500020919700309198004091990050919A0016
:1004600070919B00DA01C9010296A11DB11D672F91
:100470006A5F6D3730F06D57DA01C9010396A11D2F
:10048000B11D60939B008093970090939800A09378
:100490009900B0939A008091930090919400A0915C
:1004A0009500B09196000196A11DB11D8093930017
:1004B00090939400A0939500B0939600BF91AF9154
:1004C0009F918F917F916F915F914F913F912F916C
:1004D0000F900FBE0F901F9018958FB7F894209132
:1004E0009700309198004091990050919A008FBFE9
:1004F000B901CA0108959B01AC017FB7F8948091BE
:10050000930090919400A0919500B091960062B7ED
:1005100008B601FE05C06F3F19F00196A11DB11D7F
:100520007FBFBA2FA92F982F8827860F911DA11D55
:10053000B11D63E0880F991FAA1FBB1F6A95D1F7F1
:10054000BC012EC0FFB7F894809193009091940065
:10055000A0919500B0919600E2B708B601FE05C0E3
:10056000EF3F19F00196A11DB11DFFBFBA2FA92FB2
:10057000982F88278E0F911DA11DB11DE3E0880FD4
:10058000991FAA1FBB1FEA95D1F7861B970B885EA0
:100590009340C0F2215030404040504068517C4F61
:1005A000211531054105510569F6089578948AB5FC
:1005B00082608ABD8AB581608ABD83B7826083BF4D
:1005C00083B7816083BF89B7826089BF80B782604B
:1005D00080BF80B7816080BF329A319A309A379A53
:1005E00008951F93CF93DF93182FEB0161E026D07E
:1005F0002097D1F0CF3FD105D1F0E12FF0E0EC5BB7
:10060000FF4F8491813019F0823059F405C08AB5CA
:1006100080688ABDC9BD0EC08AB580628ABDC8BD6A
:1006200009C0C038D1051CF4812F60E002C0812FC1
:1006300061E043D0DF91CF911F910895CF93DF9375
:10064000482F50E0CA01865C9F4FFC013491405D09
:100650005F4FFA018491882369F190E0880F991F18
:10066000FC01E25EFF4FA591B491FC01EC5DFF4FF0
:10067000C591D491662351F42FB7F8948C91932FA0
:10068000909589238C93888189230BC0623061F413
:100690002FB7F8948C91932F909589238C93888110
:1006A000832B88832FBF06C09FB7F8948C91832B30
:1006B0008C939FBFDF91CF910895482F50E0CA01DE
:1006C0008C5B9F4FFC012491CA01865C9F4FFC010B
:1006D0009491405D5F4FFA013491332309F1222355
:1006E00059F0213019F0223039F403C08AB58F77E0
:1006F00002C08AB58F7D8ABDE32FF0E0EE0FFF1FA9
:10070000EC5DFF4FA591B4912FB7F894662321F4C7
:100710008C919095892302C08C91892B8C932FBF4B
:100720000895682F70E0CB018C5B9F4FFC012491F2
:10073000CB01865C9F4FFC014491605D7F4FFB01C4
:100740009491992319F420E030E01DC0222359F040
:10075000213019F0223039F403C08AB58F7702C0F6
:100760008AB58F7D8ABD892F90E0880F991F865D9D
:100770009F4FFC01A591B4918C9120E030E084233F
:1007800011F021E030E0C9010895CF93DF930EDF2F
:10079000C6DDC0E0D0E0BFDD2097E9F331DCFBCF60
:1007A000EE0FFF1F0590F491E02D0994F894FFCF10
:0207B000010046
:00000001FF
