:100000001BC03FC03EC03DC008C23BC03AC039C063
:1000100038C037C036C035C034C033C032C00037F6
:10002000003800360101010101010102040810201D
:10003000010300000000460011241FBECFE5D2E0FE
:10004000DEBFCDBF10E0A0E6B0E0E8E8F7E002C018
:1000500005900D92A236B107D9F710E0A2E6B0E004
:1000600001C01D92AC39B107E1F710E0C8E3D0E060
:1000700003C02297FE0182D3C633D107D1F778D3CC
:1000800081C3BECF08950895089508950F931F93D7
:1000900082E690E06BE671E04AEA50E022E430E06C
:1000A00047D188E690E064E571E042E950E023E45E
:1000B00030E03ED10EE610E0C80160E471E04EE7AA
:1000C00050E024E430E034D184E790E064E770E06D
:1000D0004EED50E025E430E02BD18AE790E0B80106
:1000E00049D11F910F910895E1D160938B007093D6
:1000F0008C0080938D0090938E00089581E008D34A
:100100009C0180918F00909190002817390749F049
:100110003093900020938F008AE790E064E770E0CE
:100120006CD10895C3D12091830030918400409117
:10013000850050918600621B730B840B950B6958E8
:1001400073418040904028F08AE790E06EE670E0CE
:1001500054D10895EF92FF920F931F93A7D17B0183
:100160008C0181E0D5D220918F00309190008217D0
:10017000930729F08AE790E06EE670E019C080915D
:10018000870090918800A0918900B0918A00E81AB8
:10019000F90A0A0B1B0B81E2E8168EE4F80680E0F0
:1001A000080780E0180728F08AE790E068E670E02A
:1001B00024D11F910F91FF90EF900895EF92FF923D
:1001C0000F931F9373D17B018C0181E0A1D29C011D
:1001D00080918B0090918C00A0918D00B0918E0049
:1001E000E81AF90A0A0B1B0B8DE5E81682E1F806FE
:1001F00080E0080780E0180728F08AE790E06EE6C4
:1002000070E00FC080918F009091900028173907FF
:1002100051F03093900020938F008AE790E062E6DF
:1002200070E0EBD028C020919100309192002F3FD8
:10023000310519F41092600006C02115310519F43A
:1002400081E08093600080916000813019F42F5F1D
:100250003F4F02C0215030403093920020939100D4
:10026000609191007091920084E0AFD163E070E002
:1002700080E090E029D11F910F91FF90EF900895B9
:1002800080E060E010D282E060E00DD281E040D2F8
:100290009093900080938F0085E060E004D284E02A
:1002A00060E070E092D1089501D160938300709373
:1002B0008400809385009093860080E060E0F3D115
:1002C00082E060E0F0D185E061E0EDD184E060E0C3
:1002D00070E07BD1089580E061E0E5D182E061E0EB
:1002E000E2D184E06FEF70E070D1E0D060938700DE
:1002F000709388008093890090938A0008958AE71C
:1003000090E061D0089581E060E091D182E061E009
:100310008ED180E061E08BD184E061E088D185E01E
:1003200061E085D18AE790E06EE670E066D00895DE
:10033000FC01718360835383428335832483089552
:10034000FC010190F081E02D309709F009950895A6
:10035000DC011296ED91FC911397309709F0099505
:100360000895DC011496ED91FC911597309709F0F2
:1003700009950895FC0181E080837483638372830F
:10038000618315821682178210860895EF92FF927C
:100390000F931F937C018B01FC0181819281E1DF2E
:1003A000F7011483038312830183C801C9DF7ED060
:1003B000F7016583768387839087C7011F910F912B
:1003C000FF90EF900895CF93DF93EC01888129810E
:1003D0003A81882321F0C901B3DF18820AC06B81FA
:1003E0007C812617370711F0CE01D0DF89819A81F1
:1003F000AFDFCE01DF91CF9108950F931F938C0152
:10040000FC017483638352D0F8016583768387830C
:100410009087C8011F910F9108951F920F920FB6F8
:100420000F9211242F933F938F939F93AF93BF937A
:100430008091970090919800A0919900B0919A00B6
:1004400030919B00232F2D5F2D3728F02D570296DA
:10045000A11DB11D03C00196A11DB11D20939B00DC
:100460008093970090939800A0939900B0939A007E
:100470008091930090919400A0919500B091960086
:100480000196A11DB11D8093930090939400A093B9
:100490009500B0939600BF91AF919F918F913F913E
:1004A0002F910F900FBE0F901F9018958FB7F89453
:1004B00020919700309198004091990050919A00B6
:1004C0008FBFB901CA0108959B01AC017FB7F894B1
:1004D0008091930090919400A0919500B091960026
:1004E0006FB508B602FE05C06F3F19F00196A11D59
:1004F000B11D7FBFBA2FA92F982F8827860F911D76
:10050000A11DB11D62E0880F991FAA1FBB1F6A952C
:10051000D1F7BC012EC0FFB7F89480919300909161
:100520009400A0919500B0919600EFB508B602FE38
:1005300005C0EF3F19F00196A11DB11DFFBFBA2FF5
:10054000A92F982F88278E0F911DA11DB11DE2E0C4
:10055000880F991FAA1FBB1FEA95D1F7861B970B1F
:10056000885E9340C0F22150304040405040685176
:100570007C4F211531054105510569F608957894A0
:1005800080B7806880BF80B7806480BF8CB580648E
:100590008CBD8FEF8DBD80B7807F876080BF89B7AE
:1005A000846089BF83B7887F83BF8AB58C7F816071
:1005B0008ABD83B7877F83BF83B7887F836083BF0C
:1005C00086B1876086B9379A08951F93CF93DF93DA
:1005D000182FEB0161E02BD01C161D06F4F4CF3F61
:1005E000D105F4F4112331F48AB58F7380688ABD84
:1005F000C9BD19C0113031F48AB58F7C80628ABDC3
:10060000C8BD11C0143031F48CB58F7C80628CBDB4
:10061000CBBD09C0C038D1051CF4812F60E002C0F9
:10062000812F61E040D0DF91CF911F910895282F55
:1006300030E0C901865D9F4FFC0144912C5D3F4F26
:10064000F9018491882371F1282F30E0F901E25EED
:10065000FF4FE491AE2FB0E0205E3F4FF90184914F
:10066000E82FF0E0662351F42FB7F8948C91942F83
:10067000909589238C93808189230BC0623061F42B
:100680002FB7F8948C91942F909589238C93808127
:10069000842B80832FBF08959FB7F8948C91842B6F
:1006A0008C939FBF0895282F482F50E0CA01865D84
:1006B0009F4FFC0134914C5D5F4FFA019491992357
:1006C00031F1222319F48AB58F7304C0213021F44B
:1006D0008AB58F7C8ABD05C0243019F48CB58F7C17
:1006E0008CBDE92FF0E0E05EFF4FE491F0E066237F
:1006F00041F49FB7F89480813095832380839FBF16
:1007000008959FB7F8948081832B80839FBF0895BD
:10071000282F482F50E0CA01865D9F4FFC0194911D
:100720004C5D5F4FFA013491332319F420E030E03F
:100730001DC0222319F48AB58F7304C0213021F41F
:100740008AB58F7C8ABD05C0243019F48CB58F7CA6
:100750008CBDE32FF0E0EE5DFF4FE491F0E080818F
:1007600020E030E0892311F021E030E0C901089554
:1007700006DFC9DDC4DDFECFEE0FFF1F0590F4914B
:08078000E02D0994F894FFCF6D
:0207880001006E
:00000001FF
